{
  "contractName": "Notary",
  "abi": [
    {
      "constant": false,
      "inputs": [
        {
          "name": "hash",
          "type": "uint256"
        },
        {
          "name": "val",
          "type": "uint256"
        }
      ],
      "name": "storeHash",
      "outputs": [
        {
          "name": "",
          "type": "uint256"
        }
      ],
      "payable": false,
      "type": "function",
      "stateMutability": "nonpayable"
    },
    {
      "constant": false,
      "inputs": [
        {
          "name": "hash",
          "type": "uint256"
        }
      ],
      "name": "getHashAt",
      "outputs": [
        {
          "name": "",
          "type": "uint256"
        }
      ],
      "payable": false,
      "type": "function",
      "stateMutability": "nonpayable"
    },
    {
      "constant": true,
      "inputs": [
        {
          "name": "",
          "type": "uint256"
        }
      ],
      "name": "AllHashes",
      "outputs": [
        {
          "name": "",
          "type": "uint256"
        }
      ],
      "payable": false,
      "type": "function",
      "stateMutability": "view"
    }
  ],
  "bytecode": "0x6060604052341561000f57600080fd5b6102288061001e6000396000f300606060405260043610610057576000357c0100000000000000000000000000000000000000000000000000000000900463ffffffff16806303c2dd9f1461005c578063409a967f1461009c5780638518a6ef146100d3575b600080fd5b341561006757600080fd5b610086600480803590602001909190803590602001909190505061010a565b6040518082815260200191505060405180910390f35b34156100a757600080fd5b6100bd600480803590602001909190505061018b565b6040518082815260200191505060405180910390f35b34156100de57600080fd5b6100f460048080359060200190919050506101c3565b6040518082815260200191505060405180910390f35b6000806000847fffffffffffffffffffffffffffffffffffffffffffffffffffffffffffffffff8110151561013b57fe5b0154141561018057816000847fffffffffffffffffffffffffffffffffffffffffffffffffffffffffffffffff8110151561017257fe5b018190555060019050610185565b600080fd5b92915050565b600080827fffffffffffffffffffffffffffffffffffffffffffffffffffffffffffffffff811015156101ba57fe5b01549050919050565b6000817fffffffffffffffffffffffffffffffffffffffffffffffffffffffffffffffff811015156101f157fe5b0160009150905054815600a165627a7a72305820ec46f8757534afadbd297311a32b4c290f870e114714509da71bff133c2e11370029",
  "source": "pragma solidity ^0.4.4;\n\n//A simple smart contract to act as the back end for an ethereum notary,\n//once document hashes are added they cannot be removed. or changed.\n//This smart contract handles no other functions.\n\n//I beleive the smart contract should be as simple as possile, with most of the\n//heavy lifting done by the frontend. Feel free to use or modify any code as needed.\n\n\ncontract Notary {\n\n\t\tuint[0xFFFFFFFFFFFFFFFFFFFFFFFFFFFFFFFFFFFFFFFFFFFFFFFFFFFFFFFFFFFFFFFF] public AllHashes;\n\n\t\t//Hashes of a document can only be added to the notary once, this way we can ensure\n\t\t//that you cannot overwrite the date for a given document.\n\t\tfunction storeHash(uint256 hash, uint val) returns (uint){\n\t\t\tif(AllHashes[hash] == 0){\n\t\t\t\tAllHashes[hash] = val;\n\t\t\t\treturn 1;\n\t\t\t}else{\n\t\t\t\trevert();\n\t\t\t\treturn 0;\n\t\t\t}\n\t\t}\n\n\t\t//Return the date for a hash at a given point.\n\t\tfunction getHashAt(uint256 hash) returns (uint){\n\t\t\treturn AllHashes[hash];\n\t\t}\n\n}\n",
  "sourcePath": "/home/jlyon1/ether/notary/contracts/Notary.sol",
  "compiler": {
    "name": "solc",
    "version": "0.4.18+commit.9cf6e910.Emscripten.clang"
  },
  "schemaVersion": "1.0.1",
  "updatedAt": "2017-12-26T03:41:59.895Z"
}