{
  "contractName": "Notary",
  "abi": [
    {
      "constant": false,
      "inputs": [
        {
          "name": "hash",
          "type": "uint256"
        },
        {
          "name": "val",
          "type": "uint256"
        }
      ],
      "name": "storeHash",
      "outputs": [
        {
          "name": "",
          "type": "uint256"
        }
      ],
      "payable": false,
      "type": "function",
      "stateMutability": "nonpayable"
    },
    {
      "constant": true,
      "inputs": [],
      "name": "getBal",
      "outputs": [
        {
          "name": "",
          "type": "uint256"
        }
      ],
      "payable": false,
      "type": "function",
      "stateMutability": "view"
    },
    {
      "constant": false,
      "inputs": [],
      "name": "withdraw",
      "outputs": [
        {
          "name": "",
          "type": "uint256"
        }
      ],
      "payable": false,
      "type": "function",
      "stateMutability": "nonpayable"
    },
    {
      "payable": false,
      "stateMutability": "view",
      "type": "function",
      "constant": true,
      "inputs": [
        {
          "name": "hash",
          "type": "uint256"
        }
      ],
      "name": "getHashAt",
      "outputs": [
        {
          "name": "",
          "type": "uint256"
        }
      ]
    },
    {
      "payable": false,
      "stateMutability": "view",
      "type": "function",
      "constant": true,
      "inputs": [
        {
          "name": "",
          "type": "uint256"
        }
      ],
      "name": "AllHashes",
      "outputs": [
        {
          "name": "",
          "type": "uint256"
        }
      ]
    },
    {
      "payable": true,
      "stateMutability": "payable",
      "type": "fallback"
    }
  ],
  "bytecode": "0x6060604052600061ffff55341561001557600080fd5b610281806100246000396000f30060606040526004361061006d576000357c0100000000000000000000000000000000000000000000000000000000900463ffffffff16806303c2dd9f1461007757806325caa262146100b75780633ccfd60b146100e0578063409a967f146100f55780638518a6ef1461012c575b3461ffff81905550005b341561008257600080fd5b6100a16004808035906020019091908035906020019091905050610163565b6040518082815260200191505060405180910390f35b34156100c257600080fd5b6100ca6101a8565b6040518082815260200191505060405180910390f35b34156100eb57600080fd5b6100f36101c7565b005b341561010057600080fd5b6101166004808035906020019091905050610220565b6040518082815260200191505060405180910390f35b341561013757600080fd5b61014d600480803590602001909190505061023a565b6040518082815260200191505060405180910390f35b60008060008461ffff8110151561017657fe5b0154141561019d578160008461ffff8110151561018f57fe5b0181905550600190506101a2565b600080fd5b92915050565b60003073ffffffffffffffffffffffffffffffffffffffff1631905090565b3373ffffffffffffffffffffffffffffffffffffffff166108fc3073ffffffffffffffffffffffffffffffffffffffff16319081150290604051600060405180830381858888f19350505050151561021e57600080fd5b565b6000808261ffff8110151561023157fe5b01549050919050565b60008161ffff8110151561024a57fe5b0160009150905054815600a165627a7a72305820e6a7c42fe43cb06d538decd2cba1ef5e46e4080c0ca1bc60d8682051998df2940029",
  "source": "pragma solidity ^0.4.4;\n\n//A simple smart contract to act as the back end for an ethereum notary,\n//once document hashes are added they cannot be removed. or changed.\n//This smart contract handles no other functions.\n\n//I beleive the smart contract should be as simple as possile, with most of the\n//heavy lifting done by the frontend. Feel free to use or modify any code as needed.\n\n\ncontract Notary {\n\n\t\tuint[0xFFFF] public AllHashes;\n\n\t\tuint256 bal = 0;\n\n\t\tfunction () public payable{\n\t\t\tbal = msg.value;\n\t\t}\n\n\t\tfunction withdraw() public {\n\t\t\tmsg.sender.transfer(this.balance);\n\t\t}\n\n\t\tfunction getBal() public view returns (uint256){\n\t\t\treturn this.balance;\n\t\t}\n\n\t\t//Hashes of a document can only be added to the notary once, this way we can ensure\n\t\t//that you cannot overwrite the date for a given document.\n\t\tfunction storeHash(uint256 hash, uint val) public returns (uint){\n\t\t\tif(AllHashes[hash] == 0){\n\t\t\t\tAllHashes[hash] = val;\n\t\t\t\treturn 1;\n\t\t\t}else{\n\t\t\t\trevert();\n\t\t\t\treturn 0;\n\t\t\t}\n\t\t}\n\n\t\t//Return the date for a hash at a given point.\n\t\tfunction getHashAt(uint256 hash) public view returns (uint){\n\t\t\treturn AllHashes[hash];\n\t\t}\n\n}\n",
  "sourcePath": "/home/jlyon1/ether/notary/contracts/Notary.sol",
  "compiler": {
    "name": "solc",
    "version": "0.4.18+commit.9cf6e910.Emscripten.clang"
  },
  "schemaVersion": "1.0.1",
  "updatedAt": "2017-12-26T22:25:38.856Z"
}