{
  "contractName": "Notary",
  "abi": [
    {
      "constant": false,
      "inputs": [
        {
          "name": "hash",
          "type": "uint256"
        },
        {
          "name": "val",
          "type": "uint256"
        }
      ],
      "name": "storeHash",
      "outputs": [
        {
          "name": "",
          "type": "uint256"
        }
      ],
      "payable": false,
      "type": "function",
      "stateMutability": "nonpayable"
    },
    {
      "constant": false,
      "inputs": [
        {
          "name": "hash",
          "type": "uint256"
        }
      ],
      "name": "getBal",
      "outputs": [
        {
          "name": "",
          "type": "uint256"
        }
      ],
      "payable": false,
      "type": "function",
      "stateMutability": "nonpayable"
    },
    {
      "constant": true,
      "inputs": [
        {
          "name": "hash",
          "type": "uint256"
        }
      ],
      "name": "getHashAt",
      "outputs": [
        {
          "name": "",
          "type": "uint256"
        }
      ],
      "payable": false,
      "type": "function",
      "stateMutability": "view"
    },
    {
      "payable": false,
      "stateMutability": "view",
      "type": "function",
      "constant": true,
      "inputs": [
        {
          "name": "",
          "type": "uint256"
        }
      ],
      "name": "AllHashes",
      "outputs": [
        {
          "name": "",
          "type": "uint256"
        }
      ]
    },
    {
      "payable": true,
      "stateMutability": "payable",
      "type": "fallback"
    }
  ],
  "bytecode": "0x606060405260007f0fffffffffffffffffffffffffffffffffffffffffffffffffffffffffffffff55341561003357600080fd5b6102a8806100426000396000f300606060405260043610610062576000357c0100000000000000000000000000000000000000000000000000000000900463ffffffff16806303c2dd9f1461008a57806325caa262146100ca578063409a967f146100f35780638518a6ef1461012a575b347f0fffffffffffffffffffffffffffffffffffffffffffffffffffffffffffffff81905550005b341561009557600080fd5b6100b46004808035906020019091908035906020019091905050610161565b6040518082815260200191505060405180910390f35b34156100d557600080fd5b6100dd6101e2565b6040518082815260200191505060405180910390f35b34156100fe57600080fd5b610114600480803590602001909190505061020b565b6040518082815260200191505060405180910390f35b341561013557600080fd5b61014b6004808035906020019091905050610243565b6040518082815260200191505060405180910390f35b6000806000847f0fffffffffffffffffffffffffffffffffffffffffffffffffffffffffffffff8110151561019257fe5b015414156101d757816000847f0fffffffffffffffffffffffffffffffffffffffffffffffffffffffffffffff811015156101c957fe5b0181905550600190506101dc565b600080fd5b92915050565b60007f0fffffffffffffffffffffffffffffffffffffffffffffffffffffffffffffff54905090565b600080827f0fffffffffffffffffffffffffffffffffffffffffffffffffffffffffffffff8110151561023a57fe5b01549050919050565b6000817f0fffffffffffffffffffffffffffffffffffffffffffffffffffffffffffffff8110151561027157fe5b0160009150905054815600a165627a7a723058204b3526a0b692baa60419e4000d85481d74fe8adbac8d531505b6ab3987718a620029",
  "source": "pragma solidity ^0.4.4;\n\n//A simple smart contract to act as the back end for an ethereum notary,\n//once document hashes are added they cannot be removed. or changed.\n//This smart contract handles no other functions.\n\n//I beleive the smart contract should be as simple as possile, with most of the\n//heavy lifting done by the frontend. Feel free to use or modify any code as needed.\n\n\ncontract Notary {\n\n\t\tuint[0xFFFFFFFFFFFFFFFFFFFFFFFFFFFFFFFFFFFFFFFFFFFFFFFFFFFFFFFFFFFFFFF] public AllHashes;\n\n\t\tuint256 bal = 0;\n\n\t\tfunction () payable{\n\t\t\tbal = msg.value;\n\t\t}\n\n\t\tfunction getBal() returns (uint256){\n\t\t\treturn bal;\n\t\t}\n\n\t\t//Hashes of a document can only be added to the notary once, this way we can ensure\n\t\t//that you cannot overwrite the date for a given document.\n\t\tfunction storeHash(uint256 hash, uint val) returns (uint){\n\t\t\tif(AllHashes[hash] == 0){\n\t\t\t\tAllHashes[hash] = val;\n\t\t\t\treturn 1;\n\t\t\t}else{\n\t\t\t\trevert();\n\t\t\t\treturn 0;\n\t\t\t}\n\t\t}\n\n\t\t//Return the date for a hash at a given point.\n\t\tfunction getHashAt(uint256 hash) view returns (uint){\n\t\t\treturn AllHashes[hash];\n\t\t}\n\n}\n",
  "sourcePath": "/home/jlyon1/ether/notary/contracts/Notary.sol",
  "compiler": {
    "name": "solc",
    "version": "0.4.18+commit.9cf6e910.Emscripten.clang"
  },
  "schemaVersion": "1.0.1",
  "updatedAt": "2017-12-26T20:50:28.141Z"
}