{
  "contractName": "Notary",
  "abi": [
    {
      "constant": false,
      "inputs": [
        {
          "name": "hash",
          "type": "uint256"
        },
        {
          "name": "val",
          "type": "uint256"
        }
      ],
      "name": "storeHash",
      "outputs": [
        {
          "name": "",
          "type": "uint256"
        }
      ],
      "payable": false,
      "type": "function",
      "stateMutability": "nonpayable"
    },
    {
      "constant": true,
      "inputs": [],
      "name": "getBal",
      "outputs": [
        {
          "name": "",
          "type": "uint256"
        }
      ],
      "payable": false,
      "type": "function",
      "stateMutability": "view"
    },
    {
      "constant": false,
      "inputs": [
        {
          "name": "hash",
          "type": "uint256"
        }
      ],
      "name": "withdraw",
      "outputs": [
        {
          "name": "",
          "type": "uint256"
        }
      ],
      "payable": false,
      "type": "function",
      "stateMutability": "nonpayable"
    },
    {
      "payable": false,
      "stateMutability": "view",
      "type": "function",
      "constant": true,
      "inputs": [
        {
          "name": "hash",
          "type": "uint256"
        }
      ],
      "name": "getHashAt",
      "outputs": [
        {
          "name": "",
          "type": "uint256"
        }
      ]
    },
    {
      "payable": false,
      "stateMutability": "view",
      "type": "function",
      "constant": true,
      "inputs": [
        {
          "name": "hash",
          "type": "uint256"
        }
      ],
      "name": "getOwnerAt",
      "outputs": [
        {
          "name": "",
          "type": "address"
        }
      ]
    },
    {
      "payable": false,
      "stateMutability": "view",
      "type": "function",
      "constant": true,
      "inputs": [
        {
          "name": "",
          "type": "uint256"
        }
      ],
      "name": "AllOwners",
      "outputs": [
        {
          "name": "",
          "type": "address"
        }
      ]
    },
    {
      "payable": false,
      "stateMutability": "view",
      "type": "function",
      "constant": true,
      "inputs": [
        {
          "name": "",
          "type": "uint256"
        }
      ],
      "name": "AllHashes",
      "outputs": [
        {
          "name": "",
          "type": "uint256"
        }
      ]
    },
    {
      "payable": true,
      "stateMutability": "payable",
      "type": "fallback"
    }
  ],
  "bytecode": "0x606060405260007001fffffffffffffffffffffffffffffffe55341561002457600080fd5b6104bc806100336000396000f300606060405260043610610083576000357c0100000000000000000000000000000000000000000000000000000000900463ffffffff16806303c2dd9f1461009c57806325caa262146100dc5780633ccfd60b14610105578063409a967f1461011a57806355f282601461015157806364293edd146101b45780638518a6ef14610217575b347001fffffffffffffffffffffffffffffffe81905550005b34156100a757600080fd5b6100c6600480803590602001909190803590602001909190505061024e565b6040518082815260200191505060405180910390f35b34156100e757600080fd5b6100ef61031c565b6040518082815260200191505060405180910390f35b341561011057600080fd5b61011861033b565b005b341561012557600080fd5b61013b6004808035906020019091905050610394565b6040518082815260200191505060405180910390f35b341561015c57600080fd5b61017260048080359060200190919050506103bc565b604051808273ffffffffffffffffffffffffffffffffffffffff1673ffffffffffffffffffffffffffffffffffffffff16815260200191505060405180910390f35b34156101bf57600080fd5b6101d56004808035906020019091905050610414565b604051808273ffffffffffffffffffffffffffffffffffffffff1673ffffffffffffffffffffffffffffffffffffffff16815260200191505060405180910390f35b341561022257600080fd5b6102386004808035906020019091905050610467565b6040518082815260200191505060405180910390f35b6000806000846fffffffffffffffffffffffffffffffff8110151561026f57fe5b0154141561031157816000846fffffffffffffffffffffffffffffffff8110151561029657fe5b0181905550336fffffffffffffffffffffffffffffffff846fffffffffffffffffffffffffffffffff811015156102c957fe5b0160006101000a81548173ffffffffffffffffffffffffffffffffffffffff021916908373ffffffffffffffffffffffffffffffffffffffff16021790555060019050610316565b600080fd5b92915050565b60003073ffffffffffffffffffffffffffffffffffffffff1631905090565b3373ffffffffffffffffffffffffffffffffffffffff166108fc3073ffffffffffffffffffffffffffffffffffffffff16319081150290604051600060405180830381858888f19350505050151561039257600080fd5b565b600080826fffffffffffffffffffffffffffffffff811015156103b357fe5b01549050919050565b60006fffffffffffffffffffffffffffffffff826fffffffffffffffffffffffffffffffff811015156103eb57fe5b0160009054906101000a900473ffffffffffffffffffffffffffffffffffffffff169050919050565b6fffffffffffffffffffffffffffffffff816fffffffffffffffffffffffffffffffff8110151561044157fe5b016000915054906101000a900473ffffffffffffffffffffffffffffffffffffffff1681565b6000816fffffffffffffffffffffffffffffffff8110151561048557fe5b0160009150905054815600a165627a7a72305820daf194463cf6014db014001d0d7d6e9352bcb748dd52f543f95d88d0e3239b8f0029",
  "source": "pragma solidity ^0.4.4;\n\ncontract Notary {\n\n\t\tuint[0xFFFFFFFFFFFFFFFFFFFFFFFFFFFFFFFF] public AllHashes;\n\t\taddress[0xFFFFFFFFFFFFFFFFFFFFFFFFFFFFFFFF] public AllOwners;\n\n\n\t\tuint256 bal = 0;\n\n\t\tfunction () public payable{\n\t\t\tbal = msg.value;\n\t\t}\n\n\t\tfunction withdraw() public {\n\t\t\tmsg.sender.transfer(this.balance);\n\t\t}\n\n\t\tfunction getBal() public view returns (uint256){\n\t\t\treturn this.balance;\n\t\t}\n\n\t\t//Hashes of a document can only be added to the notary once, this way we can ensure\n\t\t//that you cannot overwrite the date for a given document.\n\t\tfunction storeHash(uint256 hash, uint val) public returns (uint){\n\t\t\tif(AllHashes[hash] == 0){\n\t\t\t\tAllHashes[hash] = val;\n\t\t\t\tAllOwners[hash] = msg.sender;\n\t\t\t\treturn 1;\n\t\t\t}else{\n\t\t\t\trevert();\n\t\t\t\treturn 0;\n\t\t\t}\n\t\t}\n\n\t\t//Return the date for a hash at a given point.\n\t\tfunction getHashAt(uint256 hash) public view returns (uint){\n\t\t\treturn AllHashes[hash];\n\t\t}\n\t\t//Return the date for a hash at a given point.\n\t\tfunction getOwnerAt(uint256 hash) public view returns (address){\n\t\t\treturn AllOwners[hash];\n\t\t}\n\n}\n",
  "sourcePath": "/home/jlyon1/ether/notary/contracts/Notary.sol",
  "compiler": {
    "name": "solc",
    "version": "0.4.18+commit.9cf6e910.Emscripten.clang"
  },
  "schemaVersion": "1.0.1",
  "updatedAt": "2017-12-30T16:21:50.866Z"
}